:020000040000fa
:080000000002040000000000f2
:020000040000fa
:0400080016030000db
:020000040000fa
:04000c0016030000d7
:020000040000fa
:0400100016030000d3
:020000040000fa
:0400140016030000cf
:020000040000fa
:0400180016030000cb
:020000040000fa
:04001c0016030000c7
:020000040000fa
:0400200016030000c3
:020000040000fa
:0400240016030000bf
:020000040000fa
:0400280016030000bb
:020000040000fa
:04002c0016030000b7
:020000040000fa
:0400300016030000b3
:020000040000fa
:0400340016030000af
:020000040000fa
:0400380016030000ab
:020000040000fa
:04003c0016030000a7
:020000040000fa
:0400400016030000a3
:020000040000fa
:04004400c8020000ee
:020000040000fa
:04004800f0020000c2
:020000040000fa
:04004c001603000097
:020000040000fa
:040050001603000093
:020000040000fa
:04005400160300008f
:020000040000fa
:04005800160300008b
:020000040000fa
:04005c001603000087
:020000040000fa
:040060001603000083
:020000040000fa
:04006400160300007f
:020000040000fa
:04006800160300007b
:020000040000fa
:04006c001603000077
:020000040000fa
:040070001603000073
:020000040000fa
:04007400160300006f
:020000040000fa
:04007800160300006b
:020000040000fa
:04007c001603000067
:020000040000fa
:040080001603000063
:020000040000fa
:04008400160300005f
:020000040000fa
:04008800160300005b
:020000040000fa
:04008c001603000057
:020000040000fa
:040090001603000053
:020000040000fa
:04009400160300004f
:020000040000fa
:04009800160300004b
:020000040000fa
:04009c001603000047
:020000040000fa
:0400a0001603000043
:020000040000fa
:0400a400160300003f
:020000040000fa
:0400a800160300003b
:020000040000fa
:0400ac001603000037
:020000040000fa
:0400b0001603000033
:020000040000fa
:0400b400160300002f
:020000040000fa
:0400b800160300002b
:020000040000fa
:0400bc001603000027
:020000040000fa
:0400c0001603000023
:020000040000fa
:0400c400160300001f
:020000040000fa
:0400c800160300001b
:020000040000fa
:0400cc001603000017
:020000040000fa
:0400d0001603000013
:020000040000fa
:0400d400160300000f
:020000040000fa
:0400d800160300000b
:020000040000fa
:0400dc001603000007
:020000040000fa
:0400e0001603000003
:020000040000fa
:0400e40016030000ff
:020000040000fa
:0400e80016030000fb
:020000040000fa
:0400ec0016030000f7
:020000040000fa
:0400f00016030000f3
:020000040000fa
:0400f40016030000ef
:020000040000fa
:0400f80016030000eb
:020000040000fa
:0400fc0016030000e7
:020000040000fa
:0401000016030000e2
:020000040000fa
:0401040016030000de
:020000040000fa
:0401080016030000da
:020000040000fa
:04010c0016030000d6
:020000040000fa
:0401100016030000d2
:020000040000fa
:0401140016030000ce
:020000040000fa
:0401180016030000ca
:020000040000fa
:04011c0016030000c6
:020000040000fa
:0401200016030000c2
:020000040000fa
:0401240016030000be
:020000040000fa
:0401280016030000ba
:020000040000fa
:04012c0016030000b6
:020000040000fa
:0401300016030000b2
:020000040000fa
:0401340016030000ae
:020000040000fa
:0401380016030000aa
:020000040000fa
:04013c0016030000a6
:020000040000fa
:0401400016030000a2
:020000040000fa
:04014400160300009e
:020000040000fa
:04014800160300009a
:020000040000fa
:04014c001603000096
:020000040000fa
:040150001603000092
:020000040000fa
:04015400160300008e
:020000040000fa
:04015800160300008a
:020000040000fa
:04015c001603000086
:020000040000fa
:040160001603000082
:020000040000fa
:04016400160300007e
:020000040000fa
:0402080016030000d9
:020000040000fa
:04020c0016030000d5
:020000040000fa
:0402100016030000d1
:020000040000fa
:0402140016030000cd
:020000040000fa
:0402180016030000c9
:020000040000fa
:04021c0016030000c5
:020000040000fa
:0402200016030000c1
:020000040000fa
:0402240016030000bd
:020000040000fa
:0402280016030000b9
:020000040000fa
:04022c0016030000b5
:020000040000fa
:0402300016030000b1
:020000040000fa
:0402340016030000ad
:020000040000fa
:0402380016030000a9
:020000040000fa
:04023c0016030000a5
:020000040000fa
:0402400016030000a1
:020000040000fa
:04024400c8020000ec
:020000040000fa
:04024800f0020000c0
:020000040000fa
:04024c001603000095
:020000040000fa
:040250001603000091
:020000040000fa
:04025400160300008d
:020000040000fa
:040258001603000089
:020000040000fa
:04025c001603000085
:020000040000fa
:040260001603000081
:020000040000fa
:04026400160300007d
:020000040000fa
:040268001603000079
:020000040000fa
:04026c001603000075
:020000040000fa
:040270001603000071
:020000040000fa
:04027400160300006d
:020000040000fa
:040278001603000069
:020000040000fa
:04027c001603000065
:020000040000fa
:040280001603000061
:020000040000fa
:04028400160300005d
:020000040000fa
:040288001603000059
:020000040000fa
:04028c001603000055
:020000040000fa
:040290001603000051
:020000040000fa
:04029400160300004d
:020000040000fa
:040298001603000049
:020000040000fa
:04029c001603000045
:020000040000fa
:0402a0001603000041
:020000040000fa
:0402a400160300003d
:020000040000fa
:0402a8001603000039
:020000040000fa
:0402ac001603000035
:020000040000fa
:0402b0001603000031
:020000040000fa
:0402b400160300002d
:020000040000fa
:0402b8001603000029
:020000040000fa
:0402bc001603000025
:020000040000fa
:0402c0001603000021
:020000040000fa
:0402c400160300001d
:020000040000fa
:0402c8001603000019
:020000040000fa
:0402cc001603000015
:020000040000fa
:0402d0001603000011
:020000040000fa
:0402d400160300000d
:020000040000fa
:0402d8001603000009
:020000040000fa
:0402dc001603000005
:020000040000fa
:0402e0001603000001
:020000040000fa
:0402e40016030000fd
:020000040000fa
:0402e80016030000f9
:020000040000fa
:0402ec0016030000f5
:020000040000fa
:0402f00016030000f1
:020000040000fa
:0402f40016030000ed
:020000040000fa
:0402f80016030000e9
:020000040000fa
:0402fc0016030000e5
:020000040000fa
:0403000016030000e0
:020000040000fa
:0403040016030000dc
:020000040000fa
:0403080016030000d8
:020000040000fa
:04030c0016030000d4
:020000040000fa
:0403100016030000d0
:020000040000fa
:0403140016030000cc
:020000040000fa
:0403180016030000c8
:020000040000fa
:04031c0016030000c4
:020000040000fa
:0403200016030000c0
:020000040000fa
:0403240016030000bc
:020000040000fa
:0403280016030000b8
:020000040000fa
:04032c0016030000b4
:020000040000fa
:0403300016030000b0
:020000040000fa
:0403340016030000ac
:020000040000fa
:0403380016030000a8
:020000040000fa
:04033c0016030000a4
:020000040000fa
:0403400016030000a0
:020000040000fa
:04034400160300009c
:020000040000fa
:040348001603000098
:020000040000fa
:04034c001603000094
:020000040000fa
:040350001603000090
:020000040000fa
:04035400160300008c
:020000040000fa
:040358001603000088
:020000040000fa
:04035c001603000084
:020000040000fa
:040360001603000080
:020000040000fa
:04036400160300007c
:020000040000fa
:100400008f8020000e7f22000e0188000000000077
:10041000000020000000e000020032000001200087
:100420002002880014000700820007000000e0009e
:1004300003003a00408d2000010020000200370038
:100440000000200001002000810f70000100320038
:1004500014000700000020000000e000020032004d
:100460000000020000000000480802000000000038
:100470000040da000000fe004440a9000000200017
:100480000000e0000300320000002000a00188000e
:100490004440a800000006008a1f78008b1f7800e7
:1004a0000000060091018800800478000000eb0045
:1004b0001a003700e284440032a0b4009905ba0063
:1004c000e284440032a0b4009906ba00e2844400f9
:1004d00032a0b4000006eb00476fde00fd07b2005b
:1004e000636ce10003003a00ebff07000000eb0043
:1004f0000a003700606ce10004003a00005deb0088
:100500008b05e900fdff3e00040037006168e10053
:10051000010032000086eb000b00070019c7ba008b
:100520001905ba000e04e00003003a000a00e000da
:10053000e0ff3a0000000600fe07b2009e018800be
:100540008a047800f5ff3700395dba008b05e900b1
:100550000c003200295dba008b05e900080032006a
:100560000c00e00003003a00e284440032a0b40032
:10057000f5ff370019ddba008b05e900faff3a00f4
:100580008904e800e184440032a0b40000000600c1
:10059000809fbe000000fa0084e0a9005016800091
:1005a0006800600000f0a7000000ea000000e90019
:1005b0004f00de00004078000080fb00610060001a
:1005c0004300dd00611680000130a10001007000d1
:1005d000601688000080fa004f00be000040060050
:1005e0003600f800809fbe00829fbe00849fbe0040
:1005f000869fbe000000fa008500a900cd42a80039
:1006000080a8230081032000d9020700cd42a90061
:100610000080fa004f03be004f02be004f01be0033
:100620004f00be003600f900004006000040da002e
:100630000000fe000000050003f0a200889fbe003d
:100640008a9fbe008c1f7800f5000700fc00330075
:100650006450e1004f0032006420e100520032009b
:1006600003826c0007003b000905d0000306d000a0
:10067000820f54000c065d000200390002003200b7
:1006800089017800030678008582550004003d004a
:100690000003fd008103fd008502ea008b85420016
:1006a000840f720002003b0060001000e080180020
:1006b0006011b8000005eb007a28e1000a0039005b
:1006c00006007800c75ddd00f707b200878075007f
:1006d0002d003700828171000a01780061056000f9
:1006e0008180d1000080d3008502e900f9ff3b0042
:1006f000060440008784480002003b0060041400a8
:10070000e0841c000988a300070032008a81710080
:1007100082817100610164008904d1000884d300e2
:100720008b05e800170037000978a30013003a0092
:100730000b00e000130034008b05e90008044400be
:1007400089844c000a4474000978a3000d003a0023
:100750000b00e000070034008b05e90008044400aa
:1007600089844c0001003a000b0020000978a300a6
:10077000f7ff32000001eb000200370082817100b8
:100780000a0178006b0007000cf0a70001f0a00040
:10079000b40037006420e10002003a00838f6c004f
:1007a000b40033000801be000200be00ad003700f7
:1007b000889fbe008a9fbe008c1f780098000700ab
:1007c0009f00330003866c006450e1002e0032006d
:1007d0006420e100330032006150e1002f0032005c
:1007e0006120e1003100320085855500eb07b00043
:1007f0000900200008042000050037000804440018
:1008000089844c000a0031000603430087834b00b3
:100810000001530081815b00f8ff33000203be003a
:100820000800a0000804440089844c00f6ff390049
:10083000c639dd008301730001003200130020007f
:100840008904d1000884d3000998a3000500320070
:100850000800a7000300a0008904d1000884d30089
:100860008b05e8008904d1000884d3000001eb0067
:100870000281d2002f00070001f0a1000cf0a700b8
:1008800001f0a000770037006420e1007900320019
:100890000801be000200be00f7ff37006120e10042
:1008a000740032006000b800f3ff37000000200041
:1008b00001f82700f0ff370014002000a4003700e3
:1008c0000001be00410007000470a70003f0a10072
:1008d00003f8a30013003a006509b10010003200cc
:1008e000090035006928e1000200350001002800f8
:1008f0000000050000004000818048008502e900fa
:10090000fcff3a0000000600f88f420005003500a9
:100910008100d1000080d3008502e800fcff3a008e
:10092000000006008000eb00000005006011b80028
:10093000a200370081002000618055000b003d00bf
:100940000b00200061fe2f000100e1001d003400bb
:1009500082817100610164008904d1000884d300a0
:100960000000e800faff3a00710020006100640016
:1009700003007000020060000900320061044400be
:10098000e0844c000988a500050032008b05e800d2
:100990006808e10002003a008904d1000884d3000d
:1009a000f20f20000258e10005003d00c75ddd00a8
:1009b000f907b20089807500080078000000060081
:1009c0000bf827008b00780000000500c70ade0046
:1009d000f107b200f50fb20008003200e1cf42008b
:1009e000020032000170a00024000500810f700099
:1009f000010032000408050044000500810f70006a
:100a000002003a00140005008502e90000004000e1
:100a100081c04800fcff3b000170a00024000500dd
:100a20000004be00e9ff07000003be000405be008d
:100a30000200be00e5ff0700844f750000000600bd
:100a40000200be006450e100050036006420e100b1
:100a5000020036000968a30001003a000800be0049
:100a60000160a0004f0678004f05be004f04be0095
:100a700000000600f0ff2f00f1ff2700f9ff37000c
:100a8000889fbe008a9fbe008c1f7800e4ff07008d
:100a9000ebff330003866c006450e1002400320059
:100aa0006420e100270032006150e10022003200a2
:100ab0006120e100210032008b854200eb07b1008c
:100ac0000134b800003ab8000804420089844a00a2
:100ad000013ab8000030b8008880400009014a009f
:100ae00004003300000040008180480002014900fa
:100af0008b05e900c909dd008301700001003200a7
:100b000013002000c814de004814dd004709de0091
:100b10001200b200c808de000884700085ff0700dc
:100b200001f0a1000cf0a70001f0a000cdff3700fc
:100b30006120e100cfff32000801be000200be00cc
:100b4000f7ff37006150e100fcff3a00c9ff3700b2
:100b5000889fbe008a9fbe00841f7800b0ff0700f8
:100b60004f00780011003300f0ff2f00838f6c00de
:100b700006003b00040565000a00a70008003700d6
:100b800009f0a6001000200008003700820f540072
:100b9000838f5c00030039001000200001003e003c
:100ba0000000200009f0a7000000ea004f05be0089
:100bb0004f04be000000e00000000600889fbe0059
:100bc0008a9fbe00008270000402710004827100de
:100bd000260032000004be000200be006011b80012
:100be0006b092000950220000182cf000a00390025
:100bf0000541b1000082cf00070039000541b10076
:100c00000982cf00040039000541b1000882cf00fd
:100c1000010039000541b1000542520012003200c6
:100c20000a003b0082817100610164008100d100f3
:100c30000080d3008984d3000884d3008b05e800aa
:100c40000442e800f7ff3a000700370008044400b8
:100c500089844c0000004800818048008b05e90031
:100c60000442e900f9ff3a0032ff07004f05be00d9
:080c70004f04be000000060065
:020000040000fa
:100c78000e00fa00889fbe004007980051079800b0
:100c8800620798000000eb00100798000000eb00d6
:100c9800000f78002a00370002a22e0003a62400c5
:100ca8004e009000de00900073ff07000004be00b5
:100cb8001e00780080004000008020000080400076
:100cc800100078008000eb0016ff07000001be004e
:100cd8000800be00b4fe07000200200003f823004d
:100ce80053fe0700200798003107980018c0b3008a
:100cf80002f02f00f37724002e009000be00900031
:100d0800ebfe07000000e000010035000044eb00a6
:100d18000804e000090032001000200010079800c5
:100d28002e009000be009000e3fe070080007800cf
:100d38006e00900001087800040037001e0fe800dc
:100d48001e007800e30f5000d3ff34001e0090000f
:100d5800e10f500002003a001e0078000100370041
:100d6800f00f20004f04be000080fa0000000600cb
:100d78000a00fa00200798003207980043079800f5
:100d88000000eb00000f78002e0090006600400085
:100d9800000178003e009000ce009000b4ff0700ec
:100da800100798009e009000f00f2000808f5000e0
:100db80003003a0010002000000f780018003700e8
:100dc8002e009000d000900001f0a1005100980082
:100dd8002e009000d00090000110a1005100980052
:100de8002e009000d00090000160a10051009800f2
:100df8001e00900000407800e34060002e00900044
:100e08008180fb00e3806000c408dd00d001900011
:100e1800f2fc2f000281610082807000510098006e
:100e28001e0078000080fa00000006000400fa00a6
:100e3800000f7800110798001e007800d00090007d
:100e480001f0a100510098001e007800d000900029
:100e58000110a000510098001e0090008000e900d9
:100e68001e007800310098000080fa00000006009b
:100e78000400fa00100798001e009000500090002f
:100e88004400de0063406000004f78001e009000c0
:100e9800d000900001f0a100510098001e009000c1
:100ea8008000eb00010878001e417800e3406100f3
:100eb8001e0090008180fb00e3806000c408dd0014
:100ec800d0019000f2fc2f00028161008280700046
:100ed800510098000080fa00000006000200fa00a5
:100ee800000f78001e007800d000900001f0a000ec
:100ef800510098000080fa00000006000a00fa007d
:100f08002007980032079800430798000000eb007c
:100f1800000f78002e009000640040000001780067
:100f28003e009000ce00900051ff07001007980087
:100f38009e009000f00f2000808f500003003a00c0
:100f480010002000000f7800180037002e009000d5
:100f5800c000900001f0a100410098002e00900010
:100f6800c00090000110a100410098002e009000e0
:100f7800c00090000160a100410098001e00900090
:100f880000407800e34060002e0090008180fb0064
:100f9800e3806000c408dd00c0019000f2fc2f006f
:100fa8000281610082807000410098001e00780074
:100fb8000080fa00000006000400fa00000f780024
:100fc800110798001e007800c000900001f0a100f1
:100fd800410098001e007800c00090000110a00099
:100fe800410098001e0090008000e9001e00780073
:100ff800210098000080fa00000006000400fa00b2
:10100800100798001e009000400090004400de0089
:1010180063406000004f78001e009000c000900000
:1010280001f0a100410098001e0090008000eb0034
:10103800010878001e417800e34061001e0090001e
:101048008180fb00e3806000c408dd00c0019000df
:10105800f2fc2f000281610082807000410098003c
:101068000080fa00000006000200fa00000f780075
:101078001e007800c000900001f0a0004100980018
:101088000080fa00000006000000fa002e000700a9
:101098000600070019000700601020008fff0700f6
:1010a800a0102000f0ff0700ffff37000200fa0041
:1010b800d2cc2c00c3dc2300601020002cff0700da
:1010c800000f78001e007800e10f500002003a007f
:1010d800cc62a800ffff370031058000f0ff280030
:1010e8000080600000e0a0003005880094e0a800bf
:1010f80084e0a9000080fa00000006000000fa0061
:1011080051002000a0102000abff070071682000ec
:101118009140780000ceb30000c06000c040b3002a
:1011280087e6b7004105800080ff2f00008060003f
:101138003000b300400588009500a8008500a9008c
:101148000080fa00000006000000fa00c862a9004a
:101158002ca3a800c942a900c982a80069c0a80098
:081168000080fa0000000600ff
:020000040000fa
:10117000f03fb1000180b10006003500ee03090028
:1011800000000000403fb1000180b100fbff3d00c6
:101190001000b000203fb0000200350000800900c0
:0811a000000000000000060041
:020000040000fa
:1011a800000800000800000002000000010008001c
:0c11b800004000000001000000000000ea
:020000040000fa
:0200000401f009
:04000000ffff0000fe
:020000040000fa
:0200000401f009
:04000400ffff0000fa
:020000040000fa
:0200000401f009
:04000800ffff0000f6
:020000040000fa
:0200000401f009
:04000c008000000070
:020000040000fa
:0200000401f009
:04001000a500000047
:020000040000fa
:0200000401f009
:040014005f00000089
:020000040000fa
:0200000401f009
:04001800f7000000ed
:020000040000fa
:0200000401f009
:04001c00dfff000002
:00000001FF
